1064HEADER                                     07312024082120240808202408082024ZINGA CO                                21, JAKE AVE, ATLANTA, GEORGIA 21562                                                            1105525355HUTCHINS SYSTEMS, INC.                  10.1                                                                                                                                                                                                                                                                                                                                                                                                                                                                                                                                                                                                                                                                                                                                                                                                                           
10641042220240905460I1                    S1                            I00070520230000000000001000001  M000000000000000003130000000010BBBBBBBBBBBBBBBI   00000000000000000000000000004222024082820230320202402022024                  L                        ANN                                      0000000001012198200000000001  USA                                                               H                   LA12455      J1 D                        T                                        0000000000405199600000000001   J2 T                        A                                        4588545550000000000000000001  US1                                                               S                   KY12547        K21F                              K1ORION                         04K301N15545                              K4010814202308302023000000000 L13Z1                            IIII111111           N1                                                                                                                                                
10641041620240605410I2                    Z2                            I00090520220000000000002000001  M00000100000000010078 2222222222222222222100BBI   00004960000000100000000000007312024111720220000000002022024                  TUCKER                   CRIS                                     1247865890000000000000000002  US2 A                                                             L                   LA12458      J1 DEVI                     MEENA                                    2245555550000000000000000005   J2 MEENA                    RATHI                                    1468525520000000000000000001  US2 A                                                             D                   ID53352        K22PERCY                          K1LINDA                         04K301                                    K4010000000000000000000000000 L1                                                    N1                                                                                                                                                
10641020620240848560IN58465               S3                            I00090620220000000000001000001  M00000050000000000082 4444444444444444321000BBI   00009055000000050000000000007312024120620220000000000000000                  MARY                     LILLY                                    8754425520000000000000000001  US3A                                                              C                   AZ32568      J1 TUCKER                   EVAN                                     4585866630000000000000000001   J2 R                        TEENA                                    7855555550000000000000000005  US3A                                                              S                   CT35655        K22TIA                            K1RICK                          04K300                                    K4021212202300000000000000000 L13Z3                            I11111               N1                                                                                                                                                
10641017073058589250IN58465               S4                            I02020820230000000000005500001  M00000500000000010011 00000000000000000BBBBBBBAS  00049990000000000000000000007312024000000000000000011012023                  MADISON                  KEVIN                                    7854225540000000000000000001  USHOLLOW TREE ALLEY                                               DENNIS              NE75584      J1 B                        A                                        7555855220000000000000000001   J2 V                        A                                        7554455850000000000000000001  US23 F                                                            D                   IA55588        K21T                              K1L                             02K300F                                   K4010000000000000000000000000 L1                                                    N1                                                                                                                                                
10641080820240938180IN58465               S5                            I00080920230000000000002500001  M00000050000000000011 00000000000BBBBBBBBBBBBB    00024000000000000000000000007312024000000000000000000000000                  LARSON                   HARRY                                    5865225220000000000000000002  US24 FOOTER VALLEY                                                BLOOMINGDALE        KY45252      J1                                                                   000000000000000000000000000    J2                                                                   000000000000000000000000000                                                                                                        K2                                K1                              00K300                                    K4  0000000000000000000000000 L1                                                    N1                                                                                                                                                
1064TRAILER000000005000000000000000000000000000000000000000000000000000000000000000000000000000000000000000000000000000000000000000000000000000000000000000000000000000000000000000000000000000000000000000000000000000000000000000000000000000000000000000000000000000000000000000000000000000000000000000000000000000000000000000000000000000000000000000000000000000000000000000000000000000000000000000000000000000                                                                                                                                                                                                                                                                                                                                                                                                                                                                                                                                                                                                                                                                                 
